{
  "contractName": "Market",
  "abi": [
    {
      "inputs": [],
      "stateMutability": "nonpayable",
      "type": "constructor"
    },
    {
      "anonymous": false,
      "inputs": [
        {
          "indexed": true,
          "internalType": "uint256",
          "name": "_listing",
          "type": "uint256"
        }
      ],
      "name": "ListingCanceled",
      "type": "event"
    },
    {
      "anonymous": false,
      "inputs": [
        {
          "indexed": true,
          "internalType": "address",
          "name": "_contract",
          "type": "address"
        },
        {
          "indexed": true,
          "internalType": "uint256",
          "name": "_token",
          "type": "uint256"
        },
        {
          "indexed": true,
          "internalType": "address",
          "name": "_seller",
          "type": "address"
        },
        {
          "indexed": false,
          "internalType": "uint256",
          "name": "_price",
          "type": "uint256"
        }
      ],
      "name": "ListingCreated",
      "type": "event"
    },
    {
      "anonymous": false,
      "inputs": [
        {
          "indexed": true,
          "internalType": "uint256",
          "name": "_listing",
          "type": "uint256"
        }
      ],
      "name": "ListingSold",
      "type": "event"
    },
    {
      "inputs": [
        {
          "internalType": "uint256",
          "name": "",
          "type": "uint256"
        }
      ],
      "name": "listings",
      "outputs": [
        {
          "internalType": "address",
          "name": "contract_",
          "type": "address"
        },
        {
          "internalType": "uint256",
          "name": "token",
          "type": "uint256"
        },
        {
          "internalType": "address",
          "name": "seller",
          "type": "address"
        },
        {
          "internalType": "uint256",
          "name": "price",
          "type": "uint256"
        },
        {
          "internalType": "enum IMarket.Status",
          "name": "status",
          "type": "uint8"
        }
      ],
      "stateMutability": "view",
      "type": "function"
    },
    {
      "inputs": [],
      "name": "listingCreationPrice",
      "outputs": [
        {
          "internalType": "uint256",
          "name": "",
          "type": "uint256"
        }
      ],
      "stateMutability": "view",
      "type": "function"
    },
    {
      "inputs": [],
      "name": "listingPurchaseFee",
      "outputs": [
        {
          "internalType": "uint256",
          "name": "",
          "type": "uint256"
        }
      ],
      "stateMutability": "view",
      "type": "function"
    },
    {
      "inputs": [],
      "name": "activeListings",
      "outputs": [
        {
          "internalType": "uint256[]",
          "name": "",
          "type": "uint256[]"
        }
      ],
      "stateMutability": "view",
      "type": "function"
    },
    {
      "inputs": [
        {
          "internalType": "uint256",
          "name": "_listing",
          "type": "uint256"
        }
      ],
      "name": "getListing",
      "outputs": [
        {
          "components": [
            {
              "internalType": "address",
              "name": "contract_",
              "type": "address"
            },
            {
              "internalType": "uint256",
              "name": "token",
              "type": "uint256"
            },
            {
              "internalType": "address",
              "name": "seller",
              "type": "address"
            },
            {
              "internalType": "uint256",
              "name": "price",
              "type": "uint256"
            },
            {
              "internalType": "enum IMarket.Status",
              "name": "status",
              "type": "uint8"
            }
          ],
          "internalType": "struct IMarket.Listing",
          "name": "",
          "type": "tuple"
        }
      ],
      "stateMutability": "view",
      "type": "function"
    },
    {
      "inputs": [
        {
          "internalType": "address",
          "name": "_contract",
          "type": "address"
        },
        {
          "internalType": "uint256",
          "name": "_token",
          "type": "uint256"
        },
        {
          "internalType": "uint256",
          "name": "_price",
          "type": "uint256"
        }
      ],
      "name": "createListing",
      "outputs": [
        {
          "internalType": "uint256",
          "name": "listing",
          "type": "uint256"
        }
      ],
      "stateMutability": "payable",
      "type": "function"
    },
    {
      "inputs": [
        {
          "internalType": "uint256",
          "name": "_listing",
          "type": "uint256"
        }
      ],
      "name": "cancelListing",
      "outputs": [],
      "stateMutability": "nonpayable",
      "type": "function"
    },
    {
      "inputs": [
        {
          "internalType": "uint256",
          "name": "_listing",
          "type": "uint256"
        }
      ],
      "name": "purchase",
      "outputs": [],
      "stateMutability": "payable",
      "type": "function"
    }
  ],
  "bytecode": "0x608060405234801561001057600080fd5b5033600360006101000a81548173ffffffffffffffffffffffffffffffffffffffff021916908373ffffffffffffffffffffffffffffffffffffffff160217905550600180819055506002808190555061132a8061006f6000396000f3fe60806040526004361061007b5760003560e01c8063d3a17f291161004e578063d3a17f2914610141578063de74e57b1461016c578063ed3fb36b146101ad578063efef39a1146101d85761007b565b8063107a274a1461008057806324780c56146100bd578063305a67a8146100ed578063c718950714610116575b600080fd5b34801561008c57600080fd5b506100a760048036038101906100a29190610db0565b6101f4565b6040516100b49190610fea565b60405180910390f35b6100d760048036038101906100d29190610d5d565b61033c565b6040516100e49190611005565b60405180910390f35b3480156100f957600080fd5b50610114600480360381019061010f9190610db0565b6105cb565b005b34801561012257600080fd5b5061012b610735565b6040516101389190611005565b60405180910390f35b34801561014d57600080fd5b5061015661073f565b6040516101639190610fc8565b60405180910390f35b34801561017857600080fd5b50610193600480360381019061018e9190610db0565b61084e565b6040516101a4959493929190610f75565b60405180910390f35b3480156101b957600080fd5b506101c26108e1565b6040516101cf9190611005565b60405180910390f35b6101f260048036038101906101ed9190610db0565b6108eb565b005b6101fc610c84565b600080549050821061020d57600080fd5b600082815481106102215761022061124f565b5b90600052602060002090600502016040518060a00160405290816000820160009054906101000a900473ffffffffffffffffffffffffffffffffffffffff1673ffffffffffffffffffffffffffffffffffffffff1673ffffffffffffffffffffffffffffffffffffffff168152602001600182015481526020016002820160009054906101000a900473ffffffffffffffffffffffffffffffffffffffff1673ffffffffffffffffffffffffffffffffffffffff1673ffffffffffffffffffffffffffffffffffffffff168152602001600382015481526020016004820160009054906101000a900460ff16600281111561031f5761031e611220565b5b600281111561033157610330611220565b5b815250509050919050565b60008060646001548461034f919061108a565b6103599190611059565b90508034101561036857600080fd5b61037181610baf565b60008590508073ffffffffffffffffffffffffffffffffffffffff1663095ea7b330876040518363ffffffff1660e01b81526004016103b1929190610f4c565b600060405180830381600087803b1580156103cb57600080fd5b505af11580156103df573d6000803e3d6000fd5b5050505060006040518060a001604052808873ffffffffffffffffffffffffffffffffffffffff1681526020018781526020013373ffffffffffffffffffffffffffffffffffffffff1681526020018681526020016001600281111561044857610447611220565b5b815250908060018154018082558091505060019003906000526020600020906005020160009091909190915060008201518160000160006101000a81548173ffffffffffffffffffffffffffffffffffffffff021916908373ffffffffffffffffffffffffffffffffffffffff1602179055506020820151816001015560408201518160020160006101000a81548173ffffffffffffffffffffffffffffffffffffffff021916908373ffffffffffffffffffffffffffffffffffffffff1602179055506060820151816003015560808201518160040160006101000a81548160ff0219169083600281111561054157610540611220565b5b021790555050503373ffffffffffffffffffffffffffffffffffffffff16858773ffffffffffffffffffffffffffffffffffffffff167fd061156af97cd0d4f446110c8e476140c682158f5621e4bd532b4c5b2e84d125876040516105a69190611005565b60405180910390a460016000805490506105c091906110e4565b925050509392505050565b60008054905081106105dc57600080fd5b60008082815481106105f1576105f061124f565b5b906000526020600020906005020160000160009054906101000a900473ffffffffffffffffffffffffffffffffffffffff169050600080838154811061063a5761063961124f565b5b906000526020600020906005020160040160006101000a81548160ff0219169083600281111561066d5761066c611220565b5b02179055508073ffffffffffffffffffffffffffffffffffffffff1663095ea7b360008085815481106106a3576106a261124f565b5b9060005260206000209060050201600101546040518363ffffffff1660e01b81526004016106d2929190610f4c565b600060405180830381600087803b1580156106ec57600080fd5b505af1158015610700573d6000803e3d6000fd5b50505050817f5d7a33421ffa4bc07eb8929c5ace6393d3aa5ec3775e4e2f442527876b7dbe8860405160405180910390a25050565b6000600154905090565b606060008080549050905060008167ffffffffffffffff8111156107665761076561127e565b5b6040519080825280602002602001820160405280156107945781602001602082028036833780820191505090505b5090506000805b8381101561084457600160028111156107b7576107b6611220565b5b600082815481106107cb576107ca61124f565b5b906000526020600020906005020160040160009054906101000a900460ff1660028111156107fc576107fb611220565b5b141561083157808383815181106108165761081561124f565b5b602002602001018181525050818061082d90611179565b9250505b808061083c90611179565b91505061079b565b5081935050505090565b6000818154811061085e57600080fd5b90600052602060002090600502016000915090508060000160009054906101000a900473ffffffffffffffffffffffffffffffffffffffff16908060010154908060020160009054906101000a900473ffffffffffffffffffffffffffffffffffffffff16908060030154908060040160009054906101000a900460ff16905085565b6000600254905090565b60008054905081106108fc57600080fd5b60008082815481106109115761091061124f565b5b906000526020600020906005020160000160009054906101000a900473ffffffffffffffffffffffffffffffffffffffff1690506000339050600080848154811061095f5761095e61124f565b5b906000526020600020906005020160020160009054906101000a900473ffffffffffffffffffffffffffffffffffffffff169050600034905060008086815481106109ad576109ac61124f565b5b906000526020600020906005020160010154905060008087815481106109d6576109d561124f565b5b9060005260206000209060050201600301549050828111156109f757600080fd5b6000606460025485610a09919061108a565b610a139190611059565b9050610a1e81610baf565b610a33858284610a2e91906110e4565b610c27565b8673ffffffffffffffffffffffffffffffffffffffff166323b872dd8873ffffffffffffffffffffffffffffffffffffffff16636352211e866040518263ffffffff1660e01b8152600401610a889190611005565b60206040518083038186803b158015610aa057600080fd5b505afa158015610ab4573d6000803e3d6000fd5b505050506040513d601f19601f82011682018060405250810190610ad89190610d30565b88866040518463ffffffff1660e01b8152600401610af893929190610f15565b600060405180830381600087803b158015610b1257600080fd5b505af1158015610b26573d6000803e3d6000fd5b50505050600260008981548110610b4057610b3f61124f565b5b906000526020600020906005020160040160006101000a81548160ff02191690836002811115610b7357610b72611220565b5b0217905550877f0c4b1588e6bce14f6450379b0976f995df2fde943a8c652973e67a2ae18f349e60405160405180910390a25050505050505050565b478110610bbb57600080fd5b600360009054906101000a900473ffffffffffffffffffffffffffffffffffffffff1673ffffffffffffffffffffffffffffffffffffffff166108fc829081150290604051600060405180830381858888f19350505050158015610c23573d6000803e3d6000fd5b5050565b478110610c3357600080fd5b60008290508073ffffffffffffffffffffffffffffffffffffffff166108fc839081150290604051600060405180830381858888f19350505050158015610c7e573d6000803e3d6000fd5b50505050565b6040518060a00160405280600073ffffffffffffffffffffffffffffffffffffffff16815260200160008152602001600073ffffffffffffffffffffffffffffffffffffffff1681526020016000815260200160006002811115610ceb57610cea611220565b5b81525090565b600081359050610d00816112c6565b92915050565b600081519050610d15816112c6565b92915050565b600081359050610d2a816112dd565b92915050565b600060208284031215610d4657610d456112ad565b5b6000610d5484828501610d06565b91505092915050565b600080600060608486031215610d7657610d756112ad565b5b6000610d8486828701610cf1565b9350506020610d9586828701610d1b565b9250506040610da686828701610d1b565b9150509250925092565b600060208284031215610dc657610dc56112ad565b5b6000610dd484828501610d1b565b91505092915050565b6000610de98383610ef7565b60208301905092915050565b610dfe81611118565b82525050565b610e0d81611118565b82525050565b6000610e1e82611030565b610e288185611048565b9350610e3383611020565b8060005b83811015610e64578151610e4b8882610ddd565b9750610e568361103b565b925050600181019050610e37565b5085935050505092915050565b610e7a81611167565b82525050565b610e8981611167565b82525050565b60a082016000820151610ea56000850182610df5565b506020820151610eb86020850182610ef7565b506040820151610ecb6040850182610df5565b506060820151610ede6060850182610ef7565b506080820151610ef16080850182610e71565b50505050565b610f008161115d565b82525050565b610f0f8161115d565b82525050565b6000606082019050610f2a6000830186610e04565b610f376020830185610e04565b610f446040830184610f06565b949350505050565b6000604082019050610f616000830185610e04565b610f6e6020830184610f06565b9392505050565b600060a082019050610f8a6000830188610e04565b610f976020830187610f06565b610fa46040830186610e04565b610fb16060830185610f06565b610fbe6080830184610e80565b9695505050505050565b60006020820190508181036000830152610fe28184610e13565b905092915050565b600060a082019050610fff6000830184610e8f565b92915050565b600060208201905061101a6000830184610f06565b92915050565b6000819050602082019050919050565b600081519050919050565b6000602082019050919050565b600082825260208201905092915050565b60006110648261115d565b915061106f8361115d565b92508261107f5761107e6111f1565b5b828204905092915050565b60006110958261115d565b91506110a08361115d565b9250817fffffffffffffffffffffffffffffffffffffffffffffffffffffffffffffffff04831182151516156110d9576110d86111c2565b5b828202905092915050565b60006110ef8261115d565b91506110fa8361115d565b92508282101561110d5761110c6111c2565b5b828203905092915050565b60006111238261113d565b9050919050565b6000819050611138826112b2565b919050565b600073ffffffffffffffffffffffffffffffffffffffff82169050919050565b6000819050919050565b60006111728261112a565b9050919050565b60006111848261115d565b91507fffffffffffffffffffffffffffffffffffffffffffffffffffffffffffffffff8214156111b7576111b66111c2565b5b600182019050919050565b7f4e487b7100000000000000000000000000000000000000000000000000000000600052601160045260246000fd5b7f4e487b7100000000000000000000000000000000000000000000000000000000600052601260045260246000fd5b7f4e487b7100000000000000000000000000000000000000000000000000000000600052602160045260246000fd5b7f4e487b7100000000000000000000000000000000000000000000000000000000600052603260045260246000fd5b7f4e487b7100000000000000000000000000000000000000000000000000000000600052604160045260246000fd5b600080fd5b600381106112c3576112c2611220565b5b50565b6112cf81611118565b81146112da57600080fd5b50565b6112e68161115d565b81146112f157600080fd5b5056fea264697066735822122019e11510dd66882394a801b8ada05abbff3d8ee3df6806c3f9418496663b7fb264736f6c63430008070033",
  "immutableReferences": {},
  "source": "// SPDX-License-Identifier: MIT\npragma solidity ^0.8.7;\n\nimport \"./IMarket.sol\";\nimport \"@openzeppelin/contracts/token/ERC721/ERC721.sol\";\n\ncontract Market is IMarket {\n    Listing[] public listings;\n    uint256 creationPrice; //%\n    uint256 purchaseFee; //%\n    address payable owner;\n\n    constructor() {\n        owner = payable(msg.sender);\n        creationPrice = 1;\n        purchaseFee = 2;\n    }\n\n    /// @dev The price of creating a new listing.\n    function listingCreationPrice() external view override returns (uint256) {\n        return creationPrice;\n    }\n\n    /// @dev Percentage of the purchasing price that is retained by the Market operator.\n    function listingPurchaseFee() external view override returns (uint256) {\n        return purchaseFee;\n    }\n\n    /// @dev Get all active listings.\n    function activeListings()\n        external\n        view\n        override\n        returns (uint256[] memory)\n    {\n        uint256 lenght = listings.length;\n        uint256[] memory actives = new uint256[](lenght);\n        uint256 activesLenght = 0;\n\n        for (uint256 i = 0; i < lenght; i++) {\n            if (listings[i].status == Status.Active) {\n                actives[activesLenght] = i;\n                activesLenght++;\n            }\n        }\n        return actives;\n    }\n\n    /// @dev Get the details of a listing.\n    function getListing(uint256 _listing)\n        external\n        view\n        override\n        returns (Listing memory)\n    {\n        require(_listing < listings.length);\n        return listings[_listing];\n    }\n\n    /// @dev Create a new listing.\n    function createListing(\n        address _contract,\n        uint256 _token,\n        uint256 _price\n    ) external payable override returns (uint256 listing) {\n        uint256 expectedPay = (_price * creationPrice) / 100;\n\n        require(msg.value >= expectedPay);\n\n        _payOwner(expectedPay);\n\n        ERC721 nftAddress = ERC721(_contract);\n        nftAddress.approve(address(this), _token);\n\n        listings.push(\n            Listing(_contract, _token, msg.sender, _price, Status.Active)\n        ); //msg.sender?\n\n        emit ListingCreated(_contract, _token, msg.sender, _price);\n        return listings.length - 1;\n    }\n\n    /// @dev Cancel an active listing.\n    function cancelListing(uint256 _listing) external override {\n        require(_listing < listings.length);\n        ERC721 nftAddress = ERC721(listings[_listing].contract_);\n        listings[_listing].status = Status.Canceled;\n        nftAddress.approve(address(0), listings[_listing].token);\n        emit ListingCanceled(_listing);\n    }\n\n    /// @dev Purchase an active listing.\n    function purchase(uint256 _listing) external payable override {\n        require(_listing < listings.length);\n\n        ERC721 nftAddress = ERC721(listings[_listing].contract_);\n        address buyer = msg.sender;\n        address seller = listings[_listing].seller;\n        uint256 payedPrice = msg.value;\n        uint256 tokenId = listings[_listing].token;\n        uint256 tokenPrice = listings[_listing].price;\n\n        require(tokenPrice <= payedPrice);\n\n        uint256 forOwner = (payedPrice * purchaseFee) / 100;\n\n        _payOwner(forOwner);\n        _payTo(seller, tokenPrice - forOwner);\n\n        //nftAddress.setApprovalForAll(operator, approved);\n        //(msg.sender, tokenId); //cum faci aprove acum?\n        nftAddress.transferFrom(nftAddress.ownerOf(tokenId), buyer, tokenId);\n\n        listings[_listing].status = Status.Sold;\n        emit ListingSold(_listing);\n    }\n\n    function _payTo(address _to, uint256 _sum) private {\n        require(_sum < address(this).balance);\n        address payable to = payable(_to);\n        to.transfer(_sum);\n    }\n\n    function _payOwner(uint256 _sum) private {\n        require(_sum < address(this).balance);\n        owner.transfer(_sum);\n    }\n}\n",
  "sourcePath": "/home/tanasematei/workSpace/NFTmarket/contracts/Market.sol",
  "compiler": {
    "name": "solc",
    "version": "0.8.7+commit.e28d00a7.Emscripten.clang"
  },
  "schemaVersion": "3.4.3",
  "updatedAt": "2021-09-27T12:36:09.985Z",
  "devdoc": {
    "kind": "dev",
    "methods": {
      "activeListings()": {
        "details": "Get all active listings."
      },
      "cancelListing(uint256)": {
        "details": "Cancel an active listing."
      },
      "createListing(address,uint256,uint256)": {
        "details": "Create a new listing."
      },
      "getListing(uint256)": {
        "details": "Get the details of a listing."
      },
      "listingCreationPrice()": {
        "details": "The price of creating a new listing."
      },
      "listingPurchaseFee()": {
        "details": "Percentage of the purchasing price that is retained by the Market operator."
      },
      "purchase(uint256)": {
        "details": "Purchase an active listing."
      }
    },
    "version": 1
  },
  "userdoc": {
    "kind": "user",
    "methods": {},
    "version": 1
  }
}